:100000000C9452000C946F000C946F000C946F00D1
:100010000C946F000C946F000C946F000C946F00A4
:100020000C946F000C946F000C946F000C946F0094
:100030000C946F000C9434010C946F000C946F00BE
:100040000C94EA000C946F000C946F000C946F00F9
:100050000C946F000C946F000C946F000C946F0064
:100060000C946F000C946F00000000002500280025
:100070002B0000000000240027002A0004040404D0
:100080000404040402020202020203030303030342
:10009000010204081020408001020408102001021F
:1000A0000408102011241FBECFEFD8E0DEBFCDBF63
:1000B00011E0A0E0B1E0E2E3F4E002C005900D92AF
:1000C000A83CB107D9F721E0A8ECB1E001C01D922E
:1000D000A93DB207E1F70E945B010C9417020C9452
:1000E0000000482F2091D3013091D401DB010E9400
:1000F00001022FB72093D601F894DC01CB012AE04E
:10010000B695A795979587952A95D1F7493041F4EB
:1001100090938900809388008091D6018FBF0895C5
:1001200090938B0080938A00F7CF90E0FC01E0571A
:10013000FF4F249184589F4FFC018491882399F0AC
:1001400090E0880F991FFC01EE58FF4FA591B491E4
:10015000FC01E859FF4F859194918FB7F894EC9189
:10016000E22BEC938FBF0895CF93DF938091C8016A
:100170009091C9010196883C9105D9F09093C901ED
:100180008093C801C091C801D091C901C436D1057E
:10019000ACF4CC0FDD1FC050DF4F6881798189E05E
:1001A0000E94710070E060E08AE0DF91CF910C94D2
:1001B00071001092C9011092C801E4CF70E060E0B4
:1001C00089E00E947100CC0FDD1FC85CDF4F6881A1
:1001D0007981EACF1F920F920FB60F9211242F93BD
:1001E0003F938F939F93AF93BF938091CF01909153
:1001F000D001A091D101B091D2013091CE0123E084
:10020000230F2D3758F50196A11DB11D2093CE0166
:100210008093CF019093D001A093D101B093D201EC
:100220008091CA019091CB01A091CC01B091CD01F8
:100230000196A11DB11D8093CA019093CB01A0939B
:10024000CC01B093CD01BF91AF919F918F913F9120
:100250002F910F900FBE0F901F90189526E8230F37
:100260000296A11DB11DD2CF1F920F920FB60F9211
:1002700011242F933F934F935F936F937F938F93AB
:100280009F93AF93BF93EF93FF93E091D701F091CA
:10029000D8010995FF91EF91BF91AF919F918F91F7
:1002A0007F916F915F914F913F912F910F900FBE72
:1002B0000F901F901895789484B5826084BD84B5A2
:1002C000816084BD85B5826085BD85B5816085BD51
:1002D00080916E00816080936E0010928100809109
:1002E0008100826080938100809181008160809391
:1002F0008100809180008160809380008091B100B6
:1003000084608093B1008091B00081608093B000E0
:1003100080917A00846080937A0080917A00826074
:1003200080937A0080917A00816080937A00809136
:100330007A00806880937A001092C10089E00E9460
:1003400095008AE00E9495001092800080E18093E1
:100350008100C1E0C093D5018FB78093D601F89496
:1003600080E293E09093D4018093D301909387002F
:10037000809386008091D6018FBF80918100887F15
:1003800080938100809181009091D501892B809389
:100390008100219A8091800080688093800064E6CB
:1003A00070E089E00E947100809181009091D501F8
:1003B000892B80938100229A8091800080628093B3
:1003C000800064E670E08AE00E94710090918100F4
:1003D0002091D501922B9093810084EB90E0909333
:1003E000D8018093D701C0936F0080918100822B48
:1003F00080938100C0E0D0E02097F1F30E940000DC
:10040000FBCF0E940802B7FF0895821B930B08954B
:10041000A29FB001B39FC001A39F700D811D112445
:10042000911DB29F700D811D1124911D0895F894A6
:02043000FFCFFC
:100432000000190032004B0064007D009600AF00FE
:10044200C700DF00F7000F0126013E0155016B01D5
:1004520081019701AD01C201D601EA01FE0111023B
:100462002402360247025802680278028702960284
:10047200A302B102BD02C902D402DE02E802F10205
:10048200F902000307030D03120316031A031C03E8
:100492001E032003200320031E031C031A0316035A
:1004A20012030D0307030003F902F102E802DE0260
:1004B200D402C902BD02B102A302960287027802E7
:1004C200680258024702360224021102FE01EA01C2
:1004D200D601C201AD01970181016B0155013E01B7
:1004E20026010F01F700DF00C700AF0096007D0074
:0804F20064004B003200190008
:00000001FF
